:100000000C9434000C9451000C9451000C94510049
:100010000C9451000C9451000C9451000C94C900A4
:100020000C9451000C9451000C9451000C94570105
:100030000C9459010C944A010C9451000C945100F9
:100040000C9451000C9451000C9451000C945100EC
:100050000C9451000C9451000C9451000C945100DC
:100060000C9451000C94510011241FBECFEFD8E026
:10007000DEBFCDBF11E0A0E0B1E0E6EFF2E102C0EB
:1000800005900D92A436B107D9F721E0A4E6B1E0BE
:1000900001C01D92A038B207E1F70E9471030C94D1
:1000A00079090C94000082E08093B00094E0909372
:1000B000B1008093700089EF8093B30008952FB74B
:1000C000F89460916401709165018091660190914E
:1000D00067012FBF0895E4E6F0E080818F7B808385
:1000E000E0E78081826080830895E0E7F0E080812E
:1000F0008D7F8083E4E680818064808308958FB75C
:10010000F8941092640110926501109266011092A9
:1001100067018FBF0895EFB7F89420916401309183
:1001200065014091660150916701DC01CB01820FAE
:10013000931FA41FB51F8093640190936501A09342
:100140006601B0936701EFBF0895EF92FF920F939E
:100150001F93EFB7F89420916401309165014091AD
:1001600066015091670179018A01E61AF70A080BC6
:10017000190BC701D8018093640190936501A09386
:100180006601B0936701EFBF1F910F91FF90EF9051
:1001900008951F921FB61F9211248F939F93AF93C0
:1001A000BF938091640190916501A0916601B09127
:1001B00067010196A11DB11D8093640190936501B3
:1001C000A0936601B0936701BF91AF919F918F910A
:1001D0001F901FBE1F901895CF93DF93E8E2F1E0C8
:1001E00020E030E061E070E085B1876085B945B11D
:1001F0008081DB0101C0AA0F8A95EAF78A2F8095DA
:10020000842385B9A5E2B1E080E090E046B1CC91CD
:1002100050E00C2E02C0569547950A94E2F740FD37
:100220002BC0DFEF49EF50E0D15040405040E1F7A4
:1002300000C0000046B150E00C2E02C05695479514
:100240000A94E2F740FD18C061E001C0660FCA954C
:10025000EAF746B150E04623452BD9F3A901440FF4
:10026000551F240F351F20503F4F820F931FDC0175
:100270008C91DF91CF91089511960196833091056D
:1002800029F631962F5F3F4F2330310509F0ACCF6F
:1002900080E0EFCF8F939F9384E294E69093850064
:1002A000809384002B9A5E9A9F918F9118952B983A
:1002B00018955E981895239A569A1092800082E0BD
:1002C0008093810087E080936F0084E294E69093AE
:1002D0008500809384008CED9FE690938900809345
:1002E000880090938B0080938A00089594E6980F7D
:1002F000993CC8F4682F880F770B880B990B0E94E4
:100300006C0521E73DE34AE951E40E94F80520E04D
:1003100038EB4FED56E40E94CF040E943B057093EA
:10032000890060938800089594E6980F993CC8F47A
:10033000682F880F770B880B990B0E946C0521E7BB
:100340003DE34AE951E40E94F80520E038EB4FED27
:1003500056E40E94CF040E943B0570938B0060938B
:100360008A000895CF93C82F8A3019F48DE00E9437
:10037000B2018091C00085FFFCCFC093C60080E031
:1003800090E0CF9108958091C00087FFFCCF8091CD
:10039000C60090E008951092C50087E68093C400DF
:1003A000E0ECF0E080818D7F808386E08093C20066
:1003B00088E18093C10008950E94CB0187E191E01C
:1003C00080937C0190937D0189E091E080937A0194
:1003D00090937B0108959BB19F708295807F892BBC
:1003E0008BB95B985B9A5B988FEA94E00197F1F781
:1003F00000C000000895CF93DF930F92CDB7DEB712
:100400008983611561F05A9A898182958F700E9463
:10041000EB0189810F90DF91CF910C94EB015A98F9
:10042000F3CF60E00C94FB0161E00C94FB01809140
:100430007901982F9460909379018C600C9411024B
:10044000809179018B7F8093790188600C941102EF
:1004500081E00E9411028FE39FE10197F1F700C054
:10046000000008958AB18C6F8AB98BB1837F8BB9F4
:100470002FEF80E792E0215080409040E1F700C0EC
:10048000000083E00E94EB018FE090E40197F1F718
:1004900000C0000083E00E94EB018FE090E4019730
:1004A000F1F700C0000083E00E94EB018FE090E4D0
:1004B0000197F1F700C0000082E00E94EB018FE09D
:1004C00090E40197F1F700C0000088E20E94110259
:1004D0008FE090E40197F1F700C000000E9428022D
:1004E0008FE090E40197F1F700C0000084E0809372
:1004F00079018CE00E9411028FE090E40197F1F7FE
:1005000000C00000089582E00E9411028FE39FE185
:100510000197F1F700C00000089580917901982FAC
:1005200091609093790189600C9411028091790116
:100530008E7F8093790188600C94110280917901FB
:10054000982F9260909379018A600C9411028091A7
:1005500079018D7F8093790188600C94110288E184
:100560000C9411028CE10C94110280917901982F66
:1005700092609093790186600C94110280917901C8
:100580008D7F8093790184600C94110280917901B0
:10059000982F91609093790185600C94110280915D
:1005A00079018E7F8093790184600C9411020F93FE
:1005B0001F93CF93DF93880F880F880F8873806411
:1005C000EB010E9411028E01085F1F4F89910E946A
:1005D0001402C017D107D1F780E8DF91CF911F91A6
:1005E0000F910C941102E62FF0E0E55DFE4F908133
:1005F000890F80680C941102FC01DC012C912111FF
:1006000002C010820895233C61F4DC0111963C91F4
:10061000343AA1F040F43538A1F03639C1F034381D
:1006200099F0019609C0353A29F0363BD1F7029688
:1006300026EF02C0029625EE2193DFCF029624EE2C
:10064000FBCF029625ECF8CF029624ECF5CF02966C
:1006500026EDF2CFCF93DF9300D000D0CDB7DEB739
:1006600089839A830E94FC0229812B833A813C83EF
:10067000EB81FC818081811107C00F900F900F905A
:100680000F90DF91CF910895EB81FC813196EB8340
:10069000FC830E941402ECCFEF92FF920F931F9302
:1006A000CF93DF93CDB7DEB78E01075F1F4FF80101
:1006B000E190F1908F01C7010E94FC029801A7010F
:1006C00061E170E088E691E00E94730688E691E0BF
:1006D0000E942A03DF91CF911F910F91FF90EF901D
:1006E0000895CDB7DEB762970FB6F894DEBF0FBEA0
:1006F000CDBF0E9432020E94DC010E945B010E9479
:100700005300789484B1876084B987B1887F87B9B2
:1007100088B1876088B9249A2C9A85E0EEE5F1E0EB
:10072000DE01169601900D928A95E1F79E012F5FEA
:100730003F4F2B873C8785E0D9011D928A95E9F7C9
:100740008FE291E00E942A0361E080E00E94F302C0
:100750008CE491E09F938F930E944C030F900F9035
:1007600081E0282E312CE0EDF7E0ED87FE8700E0F8
:1007700010E0480154011F86188A198A1A8A0E94BB
:100780005F002B013C010E945F006B017C01F1E0E6
:100790002F16310491F40E94EC00811571F098013C
:1007A0002F5F3F4FFE013196E00FF11F8083FE0166
:1007B0003196E20FF31F1082890161E080E00E9410
:1007C000F3029E012F5F3F4F3F932F930E944C03F4
:1007D0000F900F90C601D70188199909AA09BB0982
:1007E000ED85FE850F2E001C00088E179F07A005C3
:1007F000B00508F479C00E94280260E080E0F1E0D2
:100800002F163104F1F40E94F30228E331E03F9304
:100810002F930E944C0361E080E00E94F302DE010E
:100820001196BF93AF930E944C030F900F900F90BF
:100830000F900430110599F0B8E8BD87E3E1EE8729
:1008400050C00E94F3022EE331E03F932F930E94A9
:100850004C030F900F900430110509F09AC0460127
:10086000570198E89D87A3E1AE870E94280244E0E3
:1008700050E0BE016A5F7F4FCE0101960E9465067F
:100880008C01892B09F06CC0B1E02B16310409F002
:1008900067C085B1E0E18E2785B984E60E947601C4
:1008A00060E080E00E94F3022FE231E03F932F935B
:1008B0000E944C0361E080E00E94F302AAE4B1E0F0
:1008C000BF93AF930E944C0319820F900F900F902B
:1008D0000F90640175014F86588A698A7A8A212CA3
:1008E000312C460157014BCF6401750104301105CD
:1008F00009F4BBCF21143104A1F78F859889A98908
:10090000BA89481A590A6A0A7B0A98E8491693E193
:1009100059066104710418F30E94280285B1A0E110
:100920008A2785B980E00E94760160E080E00E941D
:10093000F302EFE2F1E0FF93EF930E944C0361E0DA
:1009400080E00E94F3028CE491E09F938F930E94D9
:100950004C030F900F900F900F9022242394C0CF40
:1009600083E591E00E942A03FFEF27EA31E6F15088
:1009700020403040E1F700C000000E9428021982A8
:10098000640175014F86588A698A7A8A00E010E00E
:10099000B1CF88E88D8793E19E87AFCF5058BB27B2
:1009A000AA270E94E6040C94BE050E94B00538F008
:1009B0000E94B70520F039F49F3F19F426F40C94F7
:1009C000AD050EF4E095E7FB0C94A705E92F0E9416
:1009D000CF0558F3BA17620773078407950720F00D
:1009E00079F4A6F50C94F1050EF4E0950B2EBA2FD0
:1009F000A02D0B01B90190010C01CA01A001112425
:100A0000FF27591B99F0593F50F4503E68F11A16D0
:100A1000F040A22F232F342F4427585FF3CF469561
:100A200037952795A795F0405395C9F77EF41F1683
:100A3000BA0B620B730B840BBAF09150A1F0FF0F4D
:100A4000BB1F661F771F881FC2F70EC0BA0F621F39
:100A5000731F841F48F4879577956795B795F79529
:100A60009E3F08F0B0CF9395880F08F09927EE0FBE
:100A70009795879508950E94D70588F09F5798F01D
:100A8000B92F9927B751B0F0E1F0660F771F881F93
:100A9000991F1AF0BA95C9F714C0B13091F00E94AD
:100AA000F105B1E008950C94F105672F782F8827A0
:100AB000B85F39F0B93FCCF3869577956795B395D4
:100AC000D9F73EF490958095709561957F4F8F4F43
:100AD0009F4F0895E89409C097FB3EF49095809548
:100AE000709561957F4F8F4F9F4F9923A9F0F92FF4
:100AF00096E9BB279395F695879577956795B79572
:100B0000F111F8CFFAF4BB0F11F460FF1BC06F5F57
:100B10007F4F8F4F9F4F16C0882311F096E911C069
:100B2000772321F09EE8872F762F05C0662371F08A
:100B300096E8862F70E060E02AF09A95660F771F9E
:100B4000881FDAF7880F9695879597F9089597F992
:100B50009F6780E870E060E008959FEF80EC089563
:100B600000240A941616170618060906089500248C
:100B70000A9412161306140605060895092E039406
:100B8000000C11F4882352F0BB0F40F4BF2B11F47A
:100B900060FF04C06F5F7F4F8F4F9F4F089557FDD9
:100BA0009058440F551F59F05F3F71F04795880FDB
:100BB00097FB991F61F09F3F79F087950895121672
:100BC00013061406551FF2CF4695F1DF08C016161E
:100BD00017061806991FF1CF8695710561050894CF
:100BE0000895E894BB2766277727CB0197F90895E6
:100BF0000E940B060C94BE050E94B00538F00E94BE
:100C0000B70520F0952311F00C94A7050C94AD05C1
:100C100011240C94F2050E94CF0570F3959FC1F347
:100C2000950F50E0551F629FF001729FBB27F00D9A
:100C3000B11D639FAA27F00DB11DAA1F649F6627EF
:100C4000B00DA11D661F829F2227B00DA11D621F3E
:100C5000739FB00DA11D621F839FA00D611D221FF8
:100C6000749F3327A00D611D231F849F600D211DDC
:100C7000822F762F6A2F11249F5750409AF0F1F05F
:100C800088234AF0EE0FFF1FBB1F661F771F881FC8
:100C900091505040A9F79E3F510580F00C94A70554
:100CA0000C94F2055F3FE4F3983ED4F38695779574
:100CB0006795B795F795E7959F5FC1F7FE2B880F6E
:100CC000911D9695879597F90895FB01DC01415098
:100CD000504030F08D910190801919F40020B9F73F
:100CE000881B990B0895AEE0B0E0E9E7F6E00C94BC
:100CF00050098C01CA0146E04C8309831A83FB0129
:100D00006130704810F0E0E0F0E83197ED83FE8349
:100D1000A901BC01CE0101960E94A0064D815E8111
:100D200057FD0AC02F813885421753070CF49A01EA
:100D3000020F131FF80110822E96E4E00C946C0948
:100D4000ACE0B0E0E6EAF6E00C9445095C016B012A
:100D50007A01FC0116821782838181FFD3C12AE0C8
:100D6000522EF5012381F60123FD859123FF819108
:100D70006F01811509F42CC1853239F423FD959159
:100D800023FF91916F01953229F4B50190E00E9403
:100D90009B08E7CF30E0712C00E010E0103210F536
:100DA0009B32C9F050F49032B9F09332C9F09E32C0
:100DB00061F516FD0DC1106405C09D3279F09033C8
:100DC00099F41160F60123FD959123FF91916F0134
:100DD0009111E4CF23C012601460F4CF1860F2CFF9
:100DE0001061F0CF17FD1AC080ED890F8A30F8F638
:100DF00016FF05C0759C800D1124782EE3CF059D4C
:100E0000800D1124082F1062DDCF9C3611F410687C
:100E1000D9CF9C3409F440C09836A1F2892F8F7D38
:100E200085548330D8F1933609F45FC0933709F4C1
:100E30006AC0933509F476C0943619F0993609F0F2
:100E4000A2C0F70117FF98C06191719181919191B2
:100E50007F011F7697FF03C00E943A0910682AE0BD
:100E600030E04E014FEF841A940AA4010E94DC087E
:100E7000682E681816FFD2C0812F8E7F671408F085
:100E8000CCC014FF1DC112FD11C11E7E972C812FF5
:100E9000867809F4CEC00FC131E094CF311509F145
:100EA000F8E0EF0EF11C8FE3898391E0692E712C3D
:100EB0004E018FEF881A980A1F7713FD04C0601641
:100EC000710408F43FC06114710409F042C00115B7
:100ED00009F447CFB50180E290E00E949B080150E1
:100EE000F6CF44E0E40EF11CDECFF7018081898368
:100EF000F2E0EF0EF11C81E0682E712C4E014FEFF5
:100F0000841A940AD9CFF701819091907F01672DBF
:100F100070E016FD02C06FEF7FEFC4010E949008E1
:100F20003C01CACFF701819091907F01672D70E05D
:100F300016FD02C06FEF7FEFC4010E9485083C01DF
:100F40001068BBCFB50180E290E00E949B08015081
:100F5000B6CFF40117FD859117FF81914F01B501BF
:100F600090E00E949B0881E0011101C080E0081B15
:100F7000F1E06F1A7108A7CF61917191872F880FE7
:100F8000880B982F65CF9537C9F41F7E1C872AE000
:100F900030E0FC85F7FF3BC0F701619171918191D1
:100FA00091917F014E014FEF841A940AA4010E948F
:100FB000DC08682E68181C851F775CCF812F897F1D
:100FC0008C87903799F058F49835B9F09F36E1F056
:100FD000F501868197812C96EFE00C946109983792
:100FE000B9F714FD06C020E130E0D3CF9C859061B5
:100FF0009C87EC85E460EC87F6CF14FF02C0166096
:101000001C8720E132E0C5CF28E030E0C2CFF701F5
:101010006191719180E090E0C4CF182F962C14FF5D
:1010200036CFFE01E60DF11D8081803309F041C00D
:10103000197E13FD0EC010FF4FC0762C901618F4C9
:10104000700E7918902E802F8919091508F480E008
:10105000980E901608F042C0091914FF41C0B5015E
:1010600080E390E00E949B0812FF09C088E590E0B1
:1010700011FD02C088E790E0B5010E949B0867144B
:10108000D0F14E018FEF881A980A6A94FE013296C9
:10109000E60DF11D3F01F30182913F01B50190E0A2
:1010A0000E949B0868147904B1F711CF972C182F70
:1010B000B8CF12FD02C09394BCCF93949394B9CF50
:1010C000972C182FE4CEB50180E290E00E949B0897
:1010D00083948016C0F3B7CF892CFBCF00E0BDCF3F
:1010E000812F867861F280E211FD8BE217FD8DE29F
:1010F000B50190E0C2CFB50180E390E00E949B086B
:101100007A94BDCF8FEF9FEF66CFFC0105906150C1
:1011100070400110D8F7809590958E0F9F1F08950D
:10112000FC016150704001900110D8F780959095B6
:101130008E0F9F1F0895A3E0B0E0E1EAF8E00C9461
:101140005109182F99836A837B83DB0113968C9155
:1011500081FD09C01FEFBFEFB983812F99812396CD
:10116000E3E00C946D0982FF1BC0EA81FB812681BC
:101170003781848195812817390754F40190F081D3
:10118000E02DCF010196AA81BB818D939D931083A1
:10119000EA81FB8186819781019686839783DDCFE3
:1011A000AA81BB811896ED91FD911A97BD01812FFF
:1011B0000995892B69F3CECFFA01AA27283051F17E
:1011C000203181F1E8946F936E7F6E5F7F4F8F4F78
:1011D0009F4FAF4FB1E03ED0B4E03CD0670F781FD7
:1011E000891F9A1FA11D680F791F8A1F911DA11DBC
:1011F0006A0F711D811D911DA11D20D009F46894F5
:101200003F912AE0269F11243019305D3193DEF69C
:10121000CF010895462F4770405D4193B3E00FD052
:10122000C9F7F6CF462F4F70405D4A3318F0495D3D
:1012300031FD4052419302D0A9F7EACFB4E0A69520
:101240009795879577956795BA95C9F70097610542
:10125000710508959B01AC010A2E06945795479598
:1012600037952795BA95C9F7620F731F841F951F8D
:10127000A01D089590958095709561957F4F8F4F33
:101280009F4F08952F923F924F925F926F927F925D
:101290008F929F92AF92BF92CF92DF92EF92FF9286
:1012A0000F931F93CF93DF93CDB7DEB7CA1BDB0B32
:1012B0000FB6F894DEBF0FBECDBF09942A883988D7
:1012C00048885F846E847D848C849B84AA84B984DE
:1012D000C884DF80EE80FD800C811B81AA81B981EA
:1012E000CE0FD11D0FB6F894DEBF0FBECDBFED01FE
:0612F0000895F894FFCF01
:1012F600313437323538333639000000010000000A
:10130600000000C30100000000000200000000B25F
:1013160001000000000001020001020040145453C5
:101326006166652069733A00636F64653A00756E9D
:101336006C6F636B65642E2E2E00756E6C6F636B1F
:1013460065640077726F6E6720636F646500313283
:04135600333400002C
:00000001FF
