:100000000C9434000C9451000C9451000C94510049
:100010000C9451000C9451000C9451000C94C900A4
:100020000C9451000C9451000C9451000C946D01EF
:100030000C946F010C9460010C9451000C945100CD
:100040000C9451000C9451000C9451000C945100EC
:100050000C9451000C9451000C9451000C945100DC
:100060000C9451000C94510011241FBECFEFD8E026
:10007000DEBFCDBF11E0A0E0B1E0E2E5F3E102C0F8
:1000800005900D92A036B107D9F721E0A0E6B1E0C6
:1000900001C01D92AC37B207E1F70E9487030C94B0
:1000A000A7090C94000082E08093B00094E0909344
:1000B000B1008093700089EF8093B30008952FB74B
:1000C000F89460916001709161018091620190915A
:1000D00063012FBF0895E4E6F0E080818F7B808389
:1000E000E0E78081826080830895E0E7F0E080812E
:1000F0008D7F8083E4E680818064808308958FB75C
:10010000F8941092600110926101109262011092B5
:1001100063018FBF0895EFB7F8942091600130918B
:1001200061014091620150916301DC01CB01820FBA
:10013000931FA41FB51F8093600190936101A0934A
:100140006201B0936301EFBF0895EF92FF920F93A6
:100150001F93EFB7F89420916001309161014091B5
:1001600062015091630179018A01E61AF70A080BCE
:10017000190BC701D8018093600190936101A0938E
:100180006201B0936301EFBF1F910F91FF90EF9059
:1001900008951F921FB61F9211248F939F93AF93C0
:1001A000BF938091600190916101A0916201B09133
:1001B00063010196A11DB11D8093600190936101BF
:1001C000A0936201B0936301BF91AF919F918F9112
:1001D0001F901FBE1F9018950F931F93CF93DF930F
:1001E000EDE2F1E000E010E021E030E085B1876071
:1001F00085B945B18081B90101C0660F8A95EAF7DA
:10020000862F8095842385B9AAE2B1E0C0E0D0E0D2
:1002100086B14C9190E0042E02C0969587950A9481
:10022000E2F780FD34C07FEF89EF90E071508040AD
:100230009040E1F700C0000086B190E0042E02C0BB
:10024000969587950A94E2F780FD21C021E001C0D0
:10025000220F4A95EAF786B190E08223892BD9F3E1
:1002600084E391E09F938F930E945F06C801880FFB
:10027000991F800F911F8B5F9E4FC80FD91F8881D8
:100280000F900F90DF91CF911F910F9108951196CC
:100290002196C330D10509F0BBCF31960F5F1F4FB8
:1002A0000330110509F0A2CF80E0ECCFFC010190F2
:1002B0000020E9F731979F01281B390BC9010895E8
:1002C0008F939F9384E294E69093850080938400BB
:1002D0002B9A5E9A9F918F9118952B9818955E98FE
:1002E0001895239A569A1092800082E0809381009C
:1002F00087E080936F0084E294E69093850080937A
:1003000084008CED9FE69093890080938800909301
:100310008B0080938A00089594E6980F993CC8F466
:10032000682F880F770B880B990B0E94580521E7DF
:100330003DE34AE951E40E94E40520E038EB4FED4B
:1003400056E40E94BB040E942705709389006093C5
:100350008800089594E6980F993CC8F4682F880F98
:10036000770B880B990B0E94580521E73DE34AE97A
:1003700051E40E94E40520E038EB4FED56E40E9482
:10038000BB040E94270570938B0060938A00089538
:10039000CF93C82F8A3019F48DE00E94C801809154
:1003A000C00085FFFCCFC093C60080E090E0CF91F5
:1003B00008958091C00087FFFCCF8091C60090E037
:1003C00008951092C50087E68093C400E0ECF0E049
:1003D00080818D7F808386E08093C20088E1809356
:1003E000C10008950E94E1018CE191E080937801C1
:1003F000909379018EE091E080937601909377015C
:1004000008959BB19F708295807F892B8BB95B98F3
:100410005B9A5B988FEA94E00197F1F700C00000C7
:100420000895CF93DF930F92CDB7DEB7898361151F
:1004300061F05A9A898182958F700E9401028981A8
:100440000F90DF91CF910C9401025A98F3CF60E0A6
:100450000C94110261E00C94110280917501982FA7
:100460009460909375018C600C94270280917501C3
:100470008B7F8093750188600C94270281E00E9435
:1004800027028FE39FE10197F1F700C00000089574
:100490008AB18C6F8AB98BB1837F8BB92FEF80E7DC
:1004A00092E0215080409040E1F700C0000083E0DE
:1004B0000E9401028FE090E40197F1F700C0000074
:1004C00083E00E9401028FE090E40197F1F700C001
:1004D000000083E00E9401028FE090E40197F1F7B1
:1004E00000C0000082E00E9401028FE090E40197CA
:1004F000F1F700C0000088E20E9427028FE090E43C
:100500000197F1F700C000000E943E028FE090E4E6
:100510000197F1F700C0000084E0809375018CE042
:100520000E9427028FE090E40197F1F700C00000DD
:10053000089582E00E9427028FE39FE10197F1F77F
:1005400000C00000089580917501982F91609093EC
:10055000750189600C942702809175018E7F8093CC
:10056000750188600C94270280917501982F926024
:10057000909375018A600C942702809175018D7F9C
:100580008093750188600C94270288E10C942702FF
:100590008CE10C94270280917501982F92609093C2
:1005A000750186600C942702809175018D7F809380
:1005B000750184600C94270280917501982F9160D9
:1005C0009093750185600C942702809175018E7F50
:1005D0008093750184600C9427020F931F93CF932F
:1005E000DF93880F880F880F88738064EB010E9467
:1005F00027028E01085F1F4F89910E942A02C017AF
:10060000D107D1F780E8DF91CF911F910F910C9422
:100610002702E62FF0E0E05DFE4F9081890F8068B1
:100620000C942702FC01DC012C91211102C01082E4
:100630000895233C61F4DC0111963C91343AA1F019
:1006400040F43538A1F03639C1F0343899F00196CC
:1006500009C0353A29F0363BD1F7029626EF02C0A1
:10066000029625EE2193DFCF029624EEFBCF029671
:1006700025ECF8CF029624ECF5CF029626EDF2CFCA
:10068000CF93DF9300D000D0CDB7DEB789839A83B4
:100690000E94120329812B833A813C83EB81FC81E8
:1006A0008081811107C00F900F900F900F90DF9104
:1006B000CF910895EB81FC813196EB83FC830E94FE
:1006C0002A02ECCFEF92FF920F931F93CF93DF9309
:1006D000CDB7DEB78E01075F1F4FF801E190F190B3
:1006E0008F01C7010E9412039801A70161E170E028
:1006F00084E691E00E94A10684E691E00E94400316
:10070000DF91CF911F910F91FF90EF900895CDB79A
:10071000DEB72B970FB6F894DEBF0FBECDBF0E9499
:10072000480288E391E00E94400361E080E00E947B
:1007300009038EE491E09F938F930E9462032FEF51
:1007400087EA91E6215080409040E1F700C0000028
:100750000E943E020E94F2010E9471010E94530019
:10076000789484B1876084B987B1887F87B988B16C
:10077000876088B9249A2C9A1E01EFEF2E1A3E0A40
:1007800085E0F10111928A95E9F70F900F9081E0D1
:100790008E831F8200E010E048015401640174015F
:1007A0000E945F002B013C010E945F0068877987EF
:1007B0008A879B8781E491E00E9475060E94EC0085
:1007C000811561F098012F5F3F4FF101E00FF11F9C
:1007D0008083F101E20FF31F108289013F922F9273
:1007E0000E945F060F900F90EE81FF81319709F014
:1007F0007EC060E080E00E94090386E491E09F9360
:100800008F930E94620361E080E00E9409033F929F
:100810002F920E9462030F900F900F900F90888587
:100820009985AA85BB8588199909AA09BB098838C1
:100830009341A105B10530F00E943E02888499845D
:10084000AA84BB840430110509F0AACF53C085E502
:1008500091E00E944003FFEF27EA81E6F15020403B
:100860008040E1F700C000000E943E021982620150
:10087000730100E010E094CF4C185D086E087F080B
:1008800098E8491693E159066104710408F488CF89
:100890000E943E0285B1E0E18E2785B980E00E948A
:1008A0008C0160E080E00E94090388E391E09F935F
:1008B0008F930E94620361E080E00E9409038EE44E
:1008C00091E09F938F930E946203FFEF27EA81E6F6
:1008D000F15020408040E1F700C000000E943E023D
:1008E0000F900F900F900F9091E09E8341C00430C5
:1008F000110511F60E943E0244E050E060E071E014
:10090000C1010E9451068C01892B09F0A0CF8E8174
:100910009F81019709F09BCF85B190E1892785B927
:10092000EFEFF1EE24E0E150F0402040E1F700C0AD
:10093000000084E60E948C0160E080E00E940903D0
:1009400088E391E09F938F930E94620361E080E0CF
:100950000E9409038CE491E09F938F930E946203AD
:1009600019820F900F900F900F90620173011E82F9
:100970001F8216CF5058BB27AA270E94D2040C947E
:10098000AA050E949C0538F00E94A30520F039F4C6
:100990009F3F19F426F40C9499050EF4E095E7FBBB
:1009A0000C949305E92F0E94BB0558F3BA17620710
:1009B00073078407950720F079F4A6F50C94DD05FC
:1009C0000EF4E0950B2EBA2FA02D0B01B90190016A
:1009D0000C01CA01A0011124FF27591B99F0593FAE
:1009E00050F4503E68F11A16F040A22F232F342FF6
:1009F0004427585FF3CF469537952795A795F04044
:100A00005395C9F77EF41F16BA0B620B730B840B58
:100A1000BAF09150A1F0FF0FBB1F661F771F881F10
:100A2000C2F70EC0BA0F621F731F841F48F4879568
:100A300077956795B795F7959E3F08F0B0CF93955A
:100A4000880F08F09927EE0F9795879508950E94D3
:100A5000C30588F09F5798F0B92F9927B751B0F088
:100A6000E1F0660F771F881F991F1AF0BA95C9F732
:100A700014C0B13091F00E94DD05B1E008950C94EE
:100A8000DD05672F782F8827B85F39F0B93FCCF3A1
:100A9000869577956795B395D9F73EF490958095AF
:100AA000709561957F4F8F4F9F4F0895E89409C0CF
:100AB00097FB3EF490958095709561957F4F8F4F91
:100AC0009F4F9923A9F0F92F96E9BB279395F695A7
:100AD000879577956795B795F111F8CFFAF4BB0F25
:100AE00011F460FF1BC06F5F7F4F8F4F9F4F16C089
:100AF000882311F096E911C0772321F09EE8872F13
:100B0000762F05C0662371F096E8862F70E060E0CE
:100B10002AF09A95660F771F881FDAF7880F969547
:100B2000879597F9089597F99F6780E870E060E0EE
:100B300008959FEF80EC089500240A941616170676
:100B400018060906089500240A94121613061406BE
:100B500005060895092E0394000C11F4882352F021
:100B6000BB0F40F4BF2B11F460FF04C06F5F7F4FD9
:100B70008F4F9F4F089557FD9058440F551F59F0C0
:100B80005F3F71F04795880F97FB991F61F09F3F7A
:100B900079F087950895121613061406551FF2CFA3
:100BA0004695F1DF08C0161617061806991FF1CFF3
:100BB00086957105610508940895E894BB2766271A
:100BC0007727CB0197F908950E94F7050C94AA05A1
:100BD0000E949C0538F00E94A30520F0952311F097
:100BE0000C9493050C94990511240C94DE050E9435
:100BF000BB0570F3959FC1F3950F50E0551F629FA1
:100C0000F001729FBB27F00DB11D639FAA27F00D65
:100C1000B11DAA1F649F6627B00DA11D661F829F8C
:100C20002227B00DA11D621F739FB00DA11D621F71
:100C3000839FA00D611D221F749F3327A00D611D8E
:100C4000231F849F600D211D822F762F6A2F112470
:100C50009F5750409AF0F1F088234AF0EE0FFF1FA3
:100C6000BB1F661F771F881F91505040A9F79E3FFA
:100C7000510580F00C9493050C94DE055F3FE4F37E
:100C8000983ED4F3869577956795B795F795E79550
:100C90009F5FC1F7FE2B880F911D9695879597F959
:100CA0000895FB01DC014150504030F08D910190DE
:100CB000801919F40020B9F7881B990B0895A0E05A
:100CC000B0E0E5E6F6E00C948009AE014B5F5F4FC3
:100CD000FA0161917191AF01809178019091790150
:100CE0000E94CE06E2E00C949C090F931F93CF93D1
:100CF000DF93E0917801F09179012381EC0100E02C
:100D000010E021FD0EC00FEF1FEFC801DF91CF9162
:100D10001F910F91089521960995892B11F00FEFDE
:100D20001FEF88816091780170917901DB0118963D
:100D3000ED91FD918111EFCF8AE00995892B29F37F
:100D4000E2CFAEE0B0E0E7EAF6E00C947E098C0179
:100D5000CA0146E04C8309831A83FB016130704865
:100D600010F0E0E0F0E83197ED83FE83A901BC01CB
:100D7000CE0101960E94CE064D815E8157FD0AC0CC
:100D80002F813885421753070CF49A01020F131F65
:100D9000F80110822E96E4E00C949A09ACE0B0E0E1
:100DA000E4EDF6E00C9473095C016B017A01FC013F
:100DB00016821782838181FFD3C12AE0522EF5016A
:100DC0002381F60123FD859123FF81916F01811518
:100DD00009F42CC1853239F423FD959123FF9191BB
:100DE0006F01953229F4B50190E00E94C908E7CF60
:100DF00030E0712C00E010E0103210F59B32C9F0A9
:100E000050F49032B9F09332C9F09E3261F516FD7C
:100E10000DC1106405C09D3279F0903399F41160D2
:100E2000F60123FD959123FF91916F019111E4CF7C
:100E300023C012601460F4CF1860F2CF1061F0CFBD
:100E400017FD1AC080ED890F8A30F8F616FF05C02D
:100E5000759C800D1124782EE3CF059D800D112403
:100E6000082F1062DDCF9C3611F41068D9CF9C3466
:100E700009F440C09836A1F2892F8F7D85548330C4
:100E8000D8F1933609F45FC0933709F46AC09335FB
:100E900009F476C0943619F0993609F0A2C0F7012A
:100EA00017FF98C061917191819191917F011F7697
:100EB00097FF03C00E94680910682AE030E04E01E5
:100EC0004FEF841A940AA4010E940A09682E681838
:100ED00016FFD2C0812F8E7F671408F0CCC014FF9C
:100EE0001DC112FD11C11E7E972C812F867809F439
:100EF000CEC00FC131E094CF311509F1F8E0EF0E0B
:100F0000F11C8FE3898391E0692E712C4E018FEFE4
:100F1000881A980A1F7713FD04C06016710408F43C
:100F20003FC06114710409F042C0011509F447CFB4
:100F3000B50180E290E00E94C9080150F6CF44E07C
:100F4000E40EF11CDECFF70180818983F2E0EF0E21
:100F5000F11C81E0682E712C4E014FEF841A940A27
:100F6000D9CFF701819091907F01672D70E016FD38
:100F700002C06FEF7FEFC4010E94BE083C01CACFE0
:100F8000F701819091907F01672D70E016FD02C0FE
:100F90006FEF7FEFC4010E94B3083C011068BBCF24
:100FA000B50180E290E00E94C9080150B6CFF4017B
:100FB00017FD859117FF81914F01B50190E00E94C7
:100FC000C90881E0011101C080E0081BF1E06F1A3F
:100FD0007108A7CF61917191872F880F880B982F87
:100FE00065CF9537C9F41F7E1C872AE030E0FC8569
:100FF000F7FF3BC0F70161917191819191917F0160
:101000004E014FEF841A940AA4010E940A09682E27
:1010100068181C851F775CCF812F897F8C8790375C
:1010200099F058F49835B9F09F36E1F0F5018681D2
:1010300097812C96EFE00C948F099837B9F714FD3F
:1010400006C020E130E0D3CF9C8590619C87EC8581
:10105000E460EC87F6CF14FF02C016601C8720E125
:1010600032E0C5CF28E030E0C2CFF7016191719145
:1010700080E090E0C4CF182F962C14FF36CFFE01ED
:10108000E60DF11D8081803309F041C0197E13FD0A
:101090000EC010FF4FC0762C901618F4700E791801
:1010A000902E802F8919091508F480E0980E90166B
:1010B00008F042C0091914FF41C0B50180E390E077
:1010C0000E94C90812FF09C088E590E011FD02C026
:1010D00088E790E0B5010E94C9086714D0F14E017D
:1010E0008FEF881A980A6A94FE013296E60DF11D78
:1010F0003F01F30182913F01B50190E00E94C908D0
:1011000068147904B1F711CF972C182FB8CF12FDBE
:1011100002C09394BCCF93949394B9CF972C182F7B
:10112000E4CEB50180E290E00E94C9088394801665
:10113000C0F3B7CF892CFBCF00E0BDCF812F8678DD
:1011400061F280E211FD8BE217FD8DE2B50190E0C6
:10115000C2CFB50180E390E00E94C9087A94BDCF68
:101160008FEF9FEF66CFFC0105906150704001103A
:10117000D8F7809590958E0F9F1F0895FC016150C0
:10118000704001900110D8F7809590958E0F9F1FA9
:101190000895A3E0B0E0EFECF8E00C947F09182F7D
:1011A00099836A837B83DB0113968C9181FD09C04F
:1011B0001FEFBFEFB983812F99812396E3E00C9451
:1011C0009B0982FF1BC0EA81FB81268137818481D4
:1011D00095812817390754F40190F081E02DCF0153
:1011E0000196AA81BB818D939D931083EA81FB8137
:1011F00086819781019686839783DDCFAA81BB8103
:101200001896ED91FD911A97BD01812F0995892BB3
:1012100069F3CECFFA01AA27283051F1203181F1AC
:10122000E8946F936E7F6E5F7F4F8F4F9F4FAF4FEE
:10123000B1E03ED0B4E03CD0670F781F891F9A1F01
:10124000A11D680F791F8A1F911DA11D6A0F711DB5
:10125000811D911DA11D20D009F468943F912AE0C1
:10126000269F11243019305D3193DEF6CF010895A9
:10127000462F4770405D4193B3E00FD0C9F7F6CFDA
:10128000462F4F70405D4A3318F0495D31FD4052A2
:10129000419302D0A9F7EACFB4E0A6959795879538
:1012A00077956795BA95C9F7009761057105089517
:1012B0009B01AC010A2E06945795479537952795C3
:1012C000BA95C9F7620F731F841F951FA01D08955B
:1012D00090958095709561957F4F8F4F9F4F0895A2
:1012E0002F923F924F925F926F927F928F929F9236
:1012F000AF92BF92CF92DF92EF92FF920F931F9324
:10130000CF93DF93CDB7DEB7CA1BDB0B0FB6F894D4
:10131000DEBF0FBECDBF09942A88398848885F8414
:101320006E847D848C849B84AA84B984C884DF8085
:10133000EE80FD800C811B81AA81B981CE0FD11D69
:101340000FB6F894DEBF0FBECDBFED010895F8943F
:02135000FFCFCD
:1013520031323334003134373235383336390000E4
:101362000001000000000000D9010000000000029E
:1013720000000000C801000000000001020001029C
:10138200004014546F706100536166652069733ABE
:10139200006D61696E00636F64653A00756E6C6F13
:1013A200636B65640077726F6E6720636F646500BC
:00000001FF
